:020000040800F2
:1000000078080020790200084923000865200008CC
:100010004523000871040008B52600080000000010
:100020000000000000000000000000005123000854
:10003000B1040008000000004D230008552300080B
:10004000930200089302000893020008930200083C
:10005000930200089302000893020008930200082C
:10006000B5040008930200089302000893020008F8
:10007000930200089302000893020008930200080C
:1000800093020008930200089302000893020008FC
:1000900075040008810400088D040008930200081C
:1000A000292400084D2400084124000835240008B4
:1000B00093020008930200089302000893020008CC
:1000C00093020008930200089302000893020008BC
:1000D00093020008930200089302000893020008AC
:1000E00093020008930200089302000859240008B4
:1000F0007D2400087124000865240008930200088C
:10010000930200089302000893020008930200087B
:10011000930200089302000893020008930200086B
:100120009302000899040008930200089302000853
:10013000930200089302000893020008930200084B
:10014000930200089302000893020008930200083B
:1001500093020008A5040008930200089302000817
:10016000930200089302000893020008930200081B
:1001700093020008930200089302000800000000A8
:1001800093020008930200089302000893020008FB
:1001900093020008930200089302000893020008EB
:1001A00000000000000000009302000800F002F8C8
:1001B00000F052F814A696E8000CB244B344DA45B5
:1001C00001D100F049F8BAE80F000FA696E8300018
:1001D000A5EB040504EB0607AAEB0704A7F101074A
:1001E0004FEA15154FEA3414A4F10104AC4201D3CF
:1001F00000F032F813F0010F18BFFB1A43F00103AF
:1002000000F001F8DBE718474025000060250000FA
:10021000103A24BF78C878C1FAD8520724BF30C832
:1002200030C144BF04680C60704700007047000094
:100230000023002400250026103A28BF78C1FBD8EF
:10024000520728BF30C148BF0B6070471FB502F08E
:100250005EFA1FBD10B510BD00F0D0F81146FFF7D3
:10026000F5FF02F029FA00F0EEF803B4FFF7F2FF11
:1002700003BC00F0F5F80000094880470948004732
:10028000FEE7FEE7FEE7FEE7FEE7FEE7FEE7FEE746
:10029000FEE7FEE704480549054A064B70470000A3
:1002A00015240008AD01000878020020780800201D
:1002B000780400207804002053EA020C00F06980E2
:1002C0002DE9F04B4FF00006002B1FBFB3FA83F56A
:1002D00003FA05F424FA05F65E4012BF1643B2FA9B
:1002E00082F502FA05F4C5F120051EBF22FA05FCCD
:1002F00044EA0C04203556EA044C4FEA144418BF73
:10030000641C4FF000084FF00009904271EB030CA1
:1003100039D3002919BFB1FA81F701FA07F6B0FA0B
:1003200080F700FA07F6C7F120071EBF20FA07FC86
:1003300046EA0C062037B6FBF4FCA7EB0507103F96
:1003400007F01F0BCBF120062CFA06F60CFA0BFB7C
:1003500044BFB3460026202FA4BF5E464FF0000BDB
:100360005BEA060C08BF4FF0010B19EB0B0948EBD9
:100370000608ABFB027C06FB02CC0BFB03CCC01BCC
:1003800071EB0C01C1E70B46024641464846BDE809
:10039000F08B13B5084318BF4FF0FF300146AFF3A1
:1003A0000080BDE81C4070474FF0000200B51346C6
:1003B00094469646203922BFA0E80C50A0E80C5085
:1003C000B1F12001BFF4F7AF090728BFA0E80C5036
:1003D00048BF0CC05DF804EB890028BF40F8042B2F
:1003E00008BF704748BF20F8022B11F0804F18BF9C
:1003F00000F8012B7047704770477047754600F052
:100400002BF8AE4605006946534620F007008546A6
:1004100018B020B5FFF73EFFBDE820404FF00006C2
:100420004FF000074FF000084FF0000BAC46ACE86F
:10043000C009ACE8C009ACE8C009ACE8C00921F0CB
:1004400007018D46704710B50446AFF30080204683
:10045000BDE81040FFF709BF00487047300000209A
:1004600001491820ABBEFEE72600020070470000DD
:10047000FEE7000040F2B400C2F2000000F096B9BE
:1004800040F2B400C2F2000000F090B940F2B400B3
:10049000C2F2000000F08AB940F2DC00C2F20000B3
:1004A00000F0EABB40F23C10C2F2000000F0E4BBF6
:1004B00070470000042000F095BD000072B600BF38
:1004C000FEE7000090F82020013A012A08D80068D1
:1004D00000F114020020136819431160704700BF37
:1004E00000F1240201204FF48021136819431160A8
:1004F0007047000010B590F820E0D0F800C0AEF1D1
:10050000010EBEF1010FDCF808E011D81EF0E05F2B
:1005100018D0CEF301640120A04018608B68DBB1D5
:10052000D1F804E0C86840EACE0040EA030E17E0C4
:1005300000F1240301204FF480211A68114319604F
:1005400010BD00BF00F1240301204FF400111A6810
:100550001143196010BD00BF0868CB6843EA405ED4
:100560000CF5C07000EB0413240140F804E00C69A2
:10057000184640F8044F097D012903D1016841F470
:100580008071016050680121D86010689860002077
:100590001A681143196010BD90F82020013A012A11
:1005A00030D8B0B546F20060C4F20000026842F0F4
:1005B00001020260026822F47C520260D1F814E069
:1005C000CC694A6A0368012C43EA022202600EF0F9
:1005D0001F024FF0010303FA02F2C3696FEA020C33
:1005E00023EA0203C36113D02CBBC36803EA0C03E4
:1005F000C360CB688C8844EA034300EBCE042364D9
:100600000B4611E0416A41F48021416201207047AC
:10061000C3681343C3600B688C8844EA034300EB50
:10062000CE04236401F10C038C681B8843EA044365
:1006300000EBCE04636443688D6943EA0204D1F899
:1006400010E0096A002D08BF03EA0C044460436906
:10065000BEF1000F43EA020408BF03EA0C040129BB
:10066000446102D1C1691143C161016821F00101F6
:1006700001600020B0BD000070470000B0B590F8E8
:100680002040013C012C7DD8D0F800C000290CBFCF
:10069000DCF80C40DCF81040A4077DD00CF5D875D0
:1006A0004FEA011C55F80C4014F00404946055F80E
:1006B0000CE005EB011C19BF4FEADE0555604FEA5F
:1006C0005E551560DCF80050E64605F00205D56081
:1006D0005EF8044F24075ABFDEF8004004F00F0410
:1006E00008241461DEF800400029C4F30724946153
:1006F000DEF800504FEA15455561DCF808201A7005
:10070000026802EB0112D2F8B8214FEA12225A70A5
:10071000026802EB0112D2F8B8214FEA12429A7035
:10072000026802EB0112D2F8B8214FEA1262DA70C5
:10073000026802EB0112D2F8BC211A71026802EBC6
:100740000112D2F8BC214FEA12225A71026802EB60
:100750000112D2F8BC214FEA12429A71026802EBF0
:100760000112D2F8BC214FEA1262DA7100680CBFA4
:1007700000F10C0100F11001002020220B681A4347
:100780000A60B0BD00F1240101204FF480220B6803
:100790001A430A60B0BD00BF00F1240101204FF4EC
:1007A00000120B681A430A60B0BD00002DE9F04F3B
:1007B00081B0044600684669D0F804908768D0F894
:1007C0000CB0D0F810A0D0F81880F10704D10025A3
:1007D00030071DD424E000BFF90710D00121BA076B
:1007E000816009D4780700F1AF80380700F1B68046
:1007F000204600F033FA02E0204600F031FA0025EE
:10080000F80500F18780F80300F1B180300707D5C3
:100810001BF0100004D0206845F400751021C16061
:10082000700708D51BF0080005D020680821C160BA
:10083000204600F0B7F9B00706D52068C0688007E9
:1008400002D0204600F0B0F9700607D51AF010006B
:1008500004D0206845F4806510210161B00608D5F8
:100860001AF0080005D0206808210161204600F038
:10087000C1F9F00606D520680069800702D020463D
:1008800000F0BAF9B00308D519F0100005D02068BF
:1008900010214160204600F0B1F9F00308D519F0AD
:1008A000080005D0206808214160204600F0E2F9E8
:1008B000300440F19B805FEA497040F1948006F477
:1008C000807008EA102028435FEA8871014648BF1B
:1008D00041F00201B20558BF01465FEA48700D467B
:1008E00048BF45F00405700558BF0D46300540F17E
:1008F0007A8018F0700000F0768010380009052822
:100900006CD8DFE800F003655D61596945F00805C2
:1009100064E000BF20684FF48071BA0581600BD499
:10092000780515D438051DD4204600F09BF9F8034E
:100930007FF56CAF1BE000BF204600F095F9F8038F
:100940007FF564AF13E000BF4FF4006558E700BFC8
:1009500005F50055F8037FF559AF08E04FF48055D1
:100960004EE700BF05F58045F8037FF54FAF2068DF
:100970004FF48031BA0381600AD4780310D438036D
:1009800014D4204600F072F930073FF541AF47E735
:10099000204600F06DF930073FF53AAF40E700BF61
:1009A00005F5004530073FF533AF39E705F58035EC
:1009B00030073FF52DAF33E745F080050EE000BF6F
:1009C00045F020050AE000BF45F0400506E000BF05
:1009D00045F0100502E000BF45F48075206881698C
:1009E00021F07001816120680421416055B1606A85
:1009F00040EA05012046616201B0BDE8F04FFFF713
:100A00003BBE00BF01B0BDE8F08F0000002804BF6E
:100A100001207047B0B5044690F8200010B9204678
:100A200000F06EF82068016841F00101016000F0FB
:100A3000C3FB054620684168C90705D100F0BCFB2F
:100A4000401B0B28F6D310E0016821F00201016081
:100A500000F0B2FB054600BF2068416889070DD54C
:100A600000F0AAFB401B0B28F6D3606A052140F476
:100A700000306062012084F82010B0BD217E026841
:100A8000012922F0800208BF80320260617E026884
:100A9000012922F0400208BF40320260A17E0268B4
:100AA000012922F0200208BF20320260E17E0268A4
:100AB000012922F0100218BF10320260217F026863
:100AC000012922F0080208BF08320260617F026833
:100AD000012922F0040208BF04320260D4E901C2F5
:100AE000D4E9033561691A432A431143ACF1010289
:100AF0001143C16100200121606284F82010B0BD63
:100B000080B586B046F200410068C4F200010022C0
:100B100088420592CDE903220292019202D006B0EA
:100B200080BD00BF43F630000092C4F202000369AA
:100B300043F000730361036903F000730093009BAB
:100B40000092036843F0080303600068022300F08A
:100B5000080000900098032001900490092005905F
:100B600001F5D43001A9CDE9023200F047FA142092
:100B70000021002200F0A2FB142000F08DFB1520C4
:100B80000021002200F09AFB152000F085FB1620C2
:100B90000021002200F092FB162000F07DFB06B041
:100BA00080BD000070470000B0B5006846F2004507
:100BB000C4F20005A84218BFB0BD40F2900440F254
:100BC000B40040F29802C2F20004C2F20000C2F285
:100BD000000200212346FFF751FD2078012807D1AC
:100BE00005F5D6304FF40061BDE8B04000F0D6BA4C
:100BF000B0BD000070470000704700007047000063
:100C0000B0B5044690F8200001281DD1022084F8D8
:100C100020002068016821F00101016000F0CCFA99
:100C2000054600BF20684068C00713D000F0C4FA32
:100C3000401B0B28F6D3606A40F400306062052048
:100C400084F820000120B0BD606A40F4002060629A
:100C50000120B0BD00206062B0BD00007047000000
:100C600070470000704700007047000070470000A8
:100C70007047000070470000F0B581B0002100917E
:100C800040F20801C2F200010B68D0E9166148F297
:100C9000B51537680822C1F64E358A403A42A3FBA3
:100CA00005350CD003681C68640708D51C6824F05F
:100CB00004041C60B260426D42F0010242650122F0
:100CC0008A403A4208D003685B691B0604D5B260CB
:100CD000426D42F00202426504228A403A4208D044
:100CE00003681B689B0704D5B260426D42F00402A2
:100CF000426510228A403A4219D001680B681B07EE
:100D000015D5B2600B680A685B0309D4D20509D413
:100D10000A6822F008020A60016C29B907E000BFE6
:100D2000110341D4016C11B1044688472046C26DBD
:100D3000202101FA02F33B4243D001680F68FF060D
:100D40003FD5B36090F835700B68052F1CD123F0A8
:100D500016030B604B6923F080034B61036C0BB9E6
:100D6000836C1BB10B6823F008030B603F2191409B
:100D7000B160012180F83510016D0022002980F852
:100D8000342054D158E000BF0A685B0310D4D20568
:100D900012D40A6822F010020A60012180F835108E
:100DA000002180F8341007E0816C0029BCD1BEE737
:100DB000110301D4416C00E0C16B11B104468847B6
:100DC0002046416DC1B3416DC9072ED0052180F881
:100DD00035100168AA0A0B6823F001030B60009B21
:100DE0000133934200931AD80B68DB0717D0009B9E
:100DF00001339342009312D80B68DB070FD0009B9E
:100E00000133934200930AD80B68DB0707D0009B9D
:100E100001339342009302D80B68DB07DFD1012135
:100E200080F83510002180F83410C16C21B101B078
:100E3000BDE8F040084700BF01B0F0BD2DE9F0412A
:100E4000044600F0B9F9ECB10546022084F83500FB
:100E50000020216884F83400086820F00100086050
:100E600021680868C00711D000F0A6F9401B0528CA
:100E7000F6D9032520230320636584F83550BDE8A7
:100E8000F08100BF0120BDE8F08100BF086848F292
:100E90003F02CFF21002D4E9013500EA020C04F15E
:100EA0000C0898E8C10143EA0C032B431843D4E92A
:100EB000072E304338431043626A40EA0E00042A8A
:100EC00040EA08031CD1206BD4E90A2E40EA0E0048
:100ED000184308604869BEF1000F20F0030040EAA3
:100EE000020040F0040C11D0B8F5005F36D0B8F124
:100EF000000F45D1022A46D0012A3BD032B942E048
:100F00000B60486920F0070040EA020C01F0F8008D
:100F10004AF6AB221038CAF6AA22A0FB02231A090D
:100F200042F24073C1F814C0C0F600039A5C40F26C
:100F3000FF335F284FF03F0021EA030100FA02F07F
:100F400088BF0431C4E916128860002301250020FF
:100F5000636584F83550BDE8F08100BF032AD5D819
:100F6000012540230120DFE802F0030E030500BF46
:100F700082E700BFAEF1C070B0FA80F0400904E033
:100F8000032A04D3C2D1CEF300600028BED00125CD
:100F900040230120636584F83550BDE8F0810000EE
:100FA000042818BF704780B540F2B40040F2140125
:100FB00040F20C0240F22C03C2F20000C2F2000127
:100FC000C2F20002C2F20003FFF794FABDE88040CB
:100FD00000B1704741F20000C4F202004FF400611A
:100FE00000F0DCB843F61441C4F201010A68024281
:100FF00014BF08607047FFF7D3BF00002DE9F04F22
:1010000083B000F1200200F13E4742F20045009219
:1010100007F1FF77C4F202050A224FEAB726A84279
:1010200008BF092200254FF000084FF00009092EE3
:1010300038BF4FEAB72201920AE000BF09F1010967
:1010400008F10208B9F1100F05F1040500F0A280C3
:101050000F68012202FA09FE17EA0E0AEED0D1F853
:1010600004C003220CF003077E1E02FA08F4012ECE
:101070006FEA040B12D88468CE6804EA0B0406FAFF
:1010800008F634438460446824EA0E06CCF3001466
:1010900004FA09F42643466004E000BF032F01D19F
:1010A00003271EE0C6688C6806EA0B0604FA08F4FB
:1010B0002643022FC66014D16FF00302009E02EA9D
:1010C000590756F807C005F01C040F220B69A2400F
:1010D0002CEA0202A3401A43F251D1F804C00CF0EA
:1010E0000307026807FA08F302EA0B021A431CF42A
:1010F000403F0260A2D0002243F644030292C4F2B1
:1011000002031A6843F6004442F480421A601A68E7
:10111000C4F2010402F480420292029A29F003020E
:101120004FF6084C2244CFF6FF7C52F80C3005F005
:101130000C070F26BE40B343019E06FA07F73B4358
:1011400042F80C30A2684B6842EA0A0743F60C4C9E
:10115000DE0258BF22EA0A07A760C4F2010CDCF8DD
:1011600000209E0242EA0A0758BF22EA0A07CCF88A
:10117000007062689E0342EA0A0758BF22EA0A0723
:1011800067602268DB0342EA0A0758BF22EA0A07BF
:10119000276053E703B0BDE8F08F0000426902EA20
:1011A0000103914341EA034181617047002A08BF6E
:1011B000090481617047000040F27420C2F200000F
:1011C0000068704740F2000040F27421C2F2000053
:1011D000C2F2000100780A681044086070470000FD
:1011E00080B543F60040C4F20200016841F400718A
:1011F0000160016841F480610160016841F480711F
:101200000160032000F086F80F2000F005F800F0E0
:1012100027F8002080BD000070B540F20006C2F241
:10122000000640F208013278C2F200014FF47A73EE
:101230000968B3FBF2F20446B1FBF2F1084600F094
:101240009DFB0F2C4FF0010508D838B94FF0FF3047
:1012500021460022002500F031F87460284670BD58
:1012600082B0002043F640010190C4F202014A68B6
:1012700042F480424A604A6802F480420192019A34
:101280000090086840F080500860086800F08050C6
:101290000090009802B07047002848BF704700F0E7
:1012A0001F01012202FA01F11C2202EAD0004EF2D3
:1012B0000012CEF2000281507047000010B54EF6C9
:1012C0000C5CCEF2000CDCF80030C3F3022E8EF082
:1012D0000704042C28BF0424BEF103034FF0FF3E93
:1012E0000EFA04F438BF0023A14399400EFA03F329
:1012F0009A43114300F00F0200F160430901043AE0
:1013000003F564436244002848BF02F10C031970DE
:1013100010BD00004EF60C51CEF200010A684FF6E7
:10132000FF031A4060F30A2242F0806040F0FD7033
:101330000860704770B582B00020019043F640000D
:10134000C4F202000168402641F08051016000684B
:10135000C4F20E2600F080500190019847F2040577
:101360000120C4F200053060FFF726FF044600BFED
:101370002868C00306D4FFF71FFF001BB0F57A7F73
:10138000F6D90EE001207060FFF716FF044600BF9B
:101390002868800308D4FFF70FFF001BB0F57A7FA1
:1013A000F6D9032002B070BD002002B070BD00006D
:1013B000002804BF012070472DE9F04143F60808DA
:1013C000C4F202080446D8F8F8030D4600F00F00F6
:1013D000884207D288F8F853D8F8F80300F00F00D5
:1013E000A84277D12068810717D5410705D5D8F8DD
:1013F000001041F4E051C8F80010010705D5D8F8F5
:10140000001041F46041C8F80010D8F80010A2683C
:1014100021F0F0011143C8F80010C00740D1D8F8FE
:10142000F80300F00F00A84207D988F8F853D8F85D
:10143000F80300F00F00A8424CD12068410707D5FF
:10144000D8F80010E26821F4E0511143C8F8001008
:10145000000708D5D8F80000216920F4604040EA70
:10146000C100C8F8000000F07DF8D8F8001042F282
:101470002872C1F30311C0F60002515C40F2080269
:1014800020FA01F140F20400C2F200000068C2F24A
:1014900000021160FFF7C0FE0020BDE8F08100BF30
:1014A0006068811E022907D258F8081C89015CBFB8
:1014B0000120BDE8F08111E0012807D158F8081C8F
:1014C00089035CBF0120BDE8F08107E058F8081CE3
:1014D000890703D40120BDE8F08100BFD8F80010CF
:1014E00021F003010843C8F80000FFF765FE064637
:1014F00041F28837D8F80000616800F00C00B0EBCA
:10150000810F8CD0FFF758FE801BB842F2D9032020
:10151000BDE8F08140F2080043F60801C2F2000085
:10152000C4F202010068096842F23872C1F38221F4
:10153000C0F60002515CC8407047000040F208004D
:1015400043F60801C2F20000C4F202010068096813
:1015500042F23872C1F34231C0F60002515CC84019
:101560007047000010B543F60404C4F2020460683A
:1015700000F00C0008280BD0042819BF42F20040EC
:10158000C0F2F40041F60030C0F2B70010BD00BF59
:10159000206821682368490241F60031C0F2B70192
:1015A00000F03F02C3F388105CBF42F20041C0F27A
:1015B000F401A1FB00010023FEF77EFE2168022258
:1015C000C1F3014102EB4101B0FBF1F010BD00009D
:1015D000002804BF012070472DE9F04182B0044685
:1015E000007843F60006C007C4F202060CD0B068CB
:1015F00000F00C00042840F081803068800303D59F
:101600006068002800F06881207880071BD5B068EA
:1016100010F00C0F09D0B06800F00C00082840F062
:1016200087807068400200F183803068800703D5AE
:10163000E068012840F050813068216920F0F8000E
:1016400040EAC10030602078000713D420784007BA
:101650002AD4A569002D00F03A81B06800F00C0092
:10166000082840F0A580012D40F00E81012002B035
:10167000BDE8F0816069002800F082800020C4F29B
:1016800047200121C0F8801EFFF796FD054600BFE8
:10169000706F8007DAD4FFF78FFD401B0228F7D95F
:1016A000032002B0BDE8F081306C5FEAC0080AD4C4
:1016B00000200190306C40F080503064306C00F0BD
:1016C00080500190019847F20007C4F20007386883
:1016D000C00547D4386840F480703860FFF76CFD6F
:1016E000054600BF3868C0053CD4FFF765FD401BC8
:1016F0000228F7D9032002B0BDE8F081B06800F0FD
:101700000C00082803D1706840023FF576AF61688D
:101710003068B1F5803F07D0B1F5A02F40F09A8036
:1017200040F480203060306840F4803030609AE0CF
:10173000E068002840F20000C4F247205CD001219C
:101740000160FFF739FD0546306880073FF574AF4B
:10175000FFF732FD401B0228F6D9032002B0BDE896
:10176000F08100BFA168306F012905D0052955D14E
:1017700040F004003067306F40F00100306756E001
:101780000020C4F247200021C0F8801EFFF714FD9E
:10179000054600BF706F80077FF558AFFFF70CFD5F
:1017A000401B0228F6D9032002B0BDE8F08100BF3B
:1017B0000027C4F2472700203866FFF7FDFC022D02
:1017C00005460DD13068800140F18A80FFF7F4FCB6
:1017D000401B02284FF00300F4D902B0BDE8F081AD
:1017E0003068800173D5FFF7E7FC401B02284FF0FB
:1017F0000300F5D9F1E700BF00210160FFF7DCFC31
:10180000054600BF306880077FF51DAFFFF7D4FCA9
:10181000401B02284FF00300F4D9DEE720F001005E
:101820003067306F002920F0040030677AD0FFF76E
:10183000C3FC054641F28837306F800700F1848091
:10184000FFF7BAFC401BB842F6D9032002B0BDE84E
:10185000F08100BF20F4803030603068002920F42F
:10186000802030607AD0FFF7A7FC054630688003FF
:101870003FF5CAAEFFF7A0FC401B6428F6D9032051
:1018800002B0BDE8F08100BF7068E16900F4800239
:101890008A4221D1216A00F03F028A421CD147F6D8
:1018A000C071626A0140B1EB821F15D1A16A4FF687
:1018B000FF73C903994300F44032A1F580318A4295
:1018C0000AD1E16A00F07060B0EB016F04D1002032
:1018D00002B0BDE8F08100BF012002B0BDE8F08198
:1018E00004F11C052FCD084340EA8210D9034FF6BE
:1018F000FF729143A1F5803140EA056008437060B2
:1019000001203866FFF758FC044600BF30688001AC
:10191000DDD4FFF751FC001B02284FF00300F5D97E
:101920005BE700BFFFF748FC054641F2883700BF80
:10193000306F800708D5FFF73FFC401BB8424FF0DF
:101940000300F5D949E700BFB8F1000F3FF581AEBC
:10195000306C20F0805030647BE600BFFFF72CFC39
:10196000054600BF306880037FF54EAEFFF724FCCC
:10197000401B64284FF00300F4D92EE7411E0020DD
:10198000B0EB116F1CBF012070474EF21002CEF277
:10199000000251604EF62351CEF20001F0230B708D
:1019A0000721906011607047704700007047000089
:1019B00090F83C20012A4FF0020254D010B580F874
:1019C0003D200268D2F804E0D2F808C00C682EF07E
:1019D0007003234341F2FF74C4F20004A242536037
:1019E0000EDC40F2FF73C4F200039A4216DCB2F13F
:1019F000804F2BD040F20043C4F2000324E000BF2C
:101A000040F2FF33C4F201039A4213DC41F60003B3
:101A1000C4F200039A4219D0002313E040F60003F9
:101A2000C4F200039A4211D040F60043C4F200030E
:101A30000AE000BF44F20003C4F201039A4205D059
:101A400040F20043C4F201039A4204D149682CF0E9
:101A50008003194391600121002280F83D1080F835
:101A60003C20BDE81040104670470000002804BF2D
:101A70000120704710B5044690F83D0028B90020B9
:101A800084F83C00204600F01FF8022084F83D0056
:101A90002068211D00F0F8FC012084F8460084F83D
:101AA0003E0084F83F0084F8400084F8410084F848
:101AB000420084F8430084F8440084F8450084F828
:101AC0003D00002010BD000080B586B0006840F2E7
:101AD0000042C4F2010200219042CDE90411CDE997
:101AE0000211019152D00021C4F2010188424AD171
:101AF000002043F644010090C4F202010A6842F05B
:101B000001020A600A6802F001020092009A009045
:101B100051F8142C42F0010241F8142C51F8141C15
:101B200001F00101009100994FF40071019102212F
:101B3000CDE902100490012005900020C4F20200BB
:101B400001A9FFF75BFA182000210022FFF7B6FB7E
:101B50001820FFF7A1FB192000210022FFF7AEFBA0
:101B60001920FFF799FB1A2000210022FFF7A6FB9E
:101B70001A20FFF791FB1B2000210022FFF79EFB9C
:101B80001B20FFF789FB06B080BD00BF43F6440071
:101B90000091C4F202000168002241F002010160DC
:101BA0000068002100F00200009000982B20FFF751
:101BB00085FB2B20FFF770FB2C2000210022FFF774
:101BC0007DFB2C20FFF768FB2D2000210022FFF772
:101BD00075FB2D20FFF760FB2E2000210022FFF770
:101BE0006DFB2E2006B0BDE88040FFF755BB00001E
:101BF00090F83C20012A4FF002026CD080B580F8AA
:101C00003D20D0F800C04FF67772DCF8083023EAA8
:101C10000202CCF808200B684F2B29DC1F2B45DD76
:101C2000202B46D0302B44D0402B40F0AF80D1F851
:101C300004E0C968DCF82030DCF8202022F0010242
:101C4000CCF82020DCF8182022F0F00242EA011142
:101C500023F00A0242EA0E02CCF81810CCF8202039
:101C6000DCF8081041F0470121F0300128E000BF06
:101C70006F2B33DDB3F5005F74D0B3F5805F21D0F7
:101C8000702B40F08380D1E901E3C968DCF80820BB
:101C900043EA0E0322F47F4243EA01211143CCF8C8
:101CA0000810DCF8081041F0770109E00BB1102BA7
:101CB0006CD1DCF8081021F07001194341F00701E4
:101CC000CCF808100022012180F83D10002180F896
:101CD0003C10BDE880401046704700BF502B21D01B
:101CE000602B53D1D1F804E0C968DCF82030DCF86F
:101CF000202022F01002CCF82020DCF8182022F45A
:101D0000704242EA013123F0A00242EA0E12CCF8FE
:101D10001810CCF82020DCF8081041F0670121F001
:101D20001001CDE7D1F804E0C968DCF82030DCF818
:101D3000202022F00102CCF82020DCF8182022F02C
:101D4000F00242EA011123F00A0242EA0E02CCF844
:101D50001810CCF82020DCF8081041F0570121F0D1
:101D60002001ADE7D1E901E3C968DCF8082043EAC6
:101D70000E0322F47F4243EA01211143CCF80810FC
:101D8000DCF8081041F480419AE700BF01229AE78D
:101D90007047000070B504460068C5680669B10761
:101DA00016D515F0020113D06FF002010161012177
:101DB00021778069800703D02046FFF7E9FF05E01F
:101DC000204600F08FF8204600F08EF800202077A3
:101DD000700719D515F0040016D020686FF00401C3
:101DE000016102212177806910F4407F04D02046F0
:101DF000FFF7CEFF06E000BF204600F073F8204654
:101E000000F072F800202077300717D515F0080091
:101E100014D020686FF00801016104212177C069A6
:101E2000800703D02046FFF7B3FF05E0204600F00F
:101E300059F8204600F058F800202077F00619D510
:101E400015F0100016D020686FF010010161082114
:101E50002177C06910F4407F04D02046FFF798FF37
:101E600006E000BF204600F03DF8204600F03CF8B8
:101E700000202077F00718BF15F0010002D13006CE
:101E800009D412E020686FF001010161204600F0E2
:101E90002DF8300609D515F0800006D020686FF0C7
:101EA000800101612046FFF77FFD700609D515F01E
:101EB000400006D020686FF040010161204600F02C
:101EC00023F8B00658BF70BD15F0200008D0216877
:101ED0006FF0200220460A61BDE87040FFF766BD42
:101EE00070BD00007047000070470000016840F2BC
:101EF0000040C4F20100814218BF704700F58830ED
:101F00004FF48041FFF74AB970470000002804BF32
:101F10000120704710B5044690F8410028B9002010
:101F200084F84000204600F021F8242084F8410085
:101F30002068C16821F40051C160204600F046FBD2
:101F40002068016921F490410161416921F02A0171
:101F50004161C16841F40051C160002020216064EA
:101F600084F8411084F84210606310BD2DE9F047F9
:101F700086B0044641F200402168C4F20100002608
:101F800081420596CDE903660296019602D006B01D
:101F9000BDE8F08743F630010096C4F202014A69B9
:101FA00046F2284842F020024A614A6900F5823030
:101FB00002F020020092009A00960A68C4F2020819
:101FC00042F040020A60096801F040010091009966
:101FD0004FF4844101910221CDE9021603210491BD
:101FE0000821059101A9FFF709F840F2DC05C2F2CA
:101FF00000054FF0206A4FF480694FF440372846BF
:10200000C5E9008AC5E90266C5E90496C5E9066620
:10201000C5E90876FEF712FF002818BFFEF74EFA52
:10202000E563AC6340F23C1508F17800C2F20005AC
:102030004021C5E9000A05F10800002280E80602F7
:102040002846C5E90522EA61C5E90872FEF7F6FEF1
:10205000002818BFFEF732FAA563AC6306B0BDE8EE
:10206000F0870000FEE7000080B540F2B40046F2C1
:102070000041C2F20000C4F200010322002380E804
:102080000E0000F10C014FF4102C4FF4401E81E8BB
:1020900008504FF480710183C0F81A30FEF7B6FC87
:1020A000002808BF80BDBDE88040FEF707BA0000E9
:1020B00080B582B00020019043F63000C4F20200E7
:1020C0000168002241F4800101600068002100F4F1
:1020D0008000019001983920FFF7F0F83920FFF7D0
:1020E000DBF8452000210022FFF7E8F8452002B088
:1020F000BDE88040FFF7D0B82DE9F04786B0002753
:1021000043F630000597CDE90377CDE901770097D5
:10211000C4F20200016841F2000A41F0400101608E
:102120000168C4F2020A01F0400100910099009791
:102130000168002241F00101016001684FF400686C
:1021400001F00101009100990097016841F0080138
:102150000160016801F00801009100990097016891
:1021600041F080010160016801F080010091009957
:102170000097016841F002010160016801F002016D
:10218000009100990097016841F010010160016819
:1021900001F01001009100990097016841F02001C1
:1021A000016000684FF4006100F02000009000988A
:1021B0005046FEF7FBFF0AF5806420464FF480414D
:1021C00000224FF48049FEF7F1FF042001904FF404
:1021D000881001AECDE90207AAF540603146FEF74E
:1021E0000DFF012550463146CDF80480CDE9025758
:1021F0000497FEF703FF20463146CDE90195CDE96E
:102200000377FEF7FBFE082000210022FFF756F8B7
:102210000820FFF741F806B0BDE8F08780B586B02A
:1022200040F29C1000220021C2F20000C4F2010220
:10223000082342F20F7C0591CDE90311CDE900118D
:10224000C0E90023C0E9021CC0E904118161FFF765
:102250000DFC002818BFFEF731F94FF480500290B2
:1022600040F29C10C2F2000002A9FFF7C1FC002856
:1022700018BFFEF723F940F29C10C2F20000694635
:10228000FFF796FB002818BFFEF718F906B080BDCF
:1022900080B586B040F2E41040F200420021C2F264
:1022A0000000C4F2010242F2273342F20F7C059192
:1022B000CDE90311CDE90011C0E90023C0E9021CFA
:1022C000C0E904118161FFF7D1FB002818BFFEF7B8
:1022D000F5F84FF48050029040F2E410C2F2000092
:1022E00002A9FFF785FC002818BFFEF7E7F840F2C7
:1022F000E410C2F200006946FFF75AFB002818BF3D
:10230000FEF7DCF806B080BD80B540F22C2041F22B
:102310000041C2F20000C4F2010100234FF00C0C96
:102320004FF4E13280E80E00C0E90333C0E905C391
:10233000C361FFF7EBFD002808BF80BDBDE880400A
:10234000FEF7BCB8FEE70000FEE7000070470000A3
:1023500070470000FEF736BF10B592B006AC2046BD
:102360003021FEF721F8002043F640010590CDE929
:102370000300CDE901000090C4F202010A6842F0B6
:1023800080520A60096801F0805100910099009024
:1023900047F20000C4F20000016841F440410160CE
:1023A00000684FF4800100F4404000900098012044
:1023B00006904FF480300D910621079002200E9177
:1023C000B4210C90CDE90F10042011902046FFF7A6
:1023D000FFF818B172B600BFFEE700BFFEF7AAFF14
:1023E00010B172B6FEE700BF0F20019002200290EC
:1023F000002003904FF4A05004904FF480500590BB
:1024000001A80521FEF7D4FF10B172B6FEE700BFA8
:1024100012B010BD4EF68850CEF20000016841F4B3
:10242000700101607047000040F29C10C2F2000091
:10243000FFF7B0BC40F29C10C2F20000FFF7AABC4C
:1024400040F29C10C2F20000FFF7A4BC40F29C10C6
:10245000C2F20000FFF79EBC40F2E410C2F200009E
:10246000FFF798BC40F2E410C2F20000FFF792BC04
:1024700040F2E410C2F20000FFF78CBC40F2E4101E
:10248000C2F20000FFF786BC10B540F6FF3E0368BD
:10249000C4F2000E40F2004C7045C4F2010C25DC81
:1024A000B0F1804F2FD040F20042C4F200029042BF
:1024B00029D040F60002C4F20002904223D041F637
:1024C000FF72C4F20002904227DC70453ADCB0F1A2
:1024D000804F5BD040F20042C4F20002904255D0DF
:1024E00040F60002C4F200024EE000BF40F6004297
:1024F000C4F20002904206D0604504D00022C4F22B
:1025000001029042DBD14A6823F07003134341F685
:10251000FF72C4F200029042D7DD43F6FF72C4F2AC
:102520000102904220DC42F20002C4F2000290421A
:102530002CD00022C4F20102904227D0604525D061
:1025400028E000BF40F60042C4F2000290421DD0D5
:1025500041F60002C4F20002904217D041F6004258
:10256000C4F2000210E000BF44F20002C4F2010213
:1025700090420BD044F60002C4F20102904205D012
:1025800044F20042C4F20102904203D1CA6823F42B
:102590004073134323F080024B69D1F800E08C684C
:1025A0001A430260C46240F48062C0F828E06245C9
:1025B00004BF09690163012141610169C90708BFBD
:1025C00010BD016921F00101016110BDB0B50446E3
:1025D000006804F108030ECB0569194325F4405542
:1025E0002A4302616269E3691143C268194349F2EF
:1025F0000C639A431143C1604169A26921F440719F
:1026000041F20043114340F48062C4F201039A4254
:10261000416103D1FEF792FF02E000BFFEF77AFFAF
:10262000E1694FF69C7563681922C0F6FF75B1F534
:10263000004FA0FB02011FD15A00DB0FFDF73CFE4B
:1026400048F21F51C5F2EB11A0FB01235A0905F115
:10265000805302FB0300322303EBC000A0FB010107
:102660004FF4F87000EA111000EB0210C1F34211B0
:10267000084421688860B0BD9A009B0FFDF71CFEDE
:1026800048F21F51C5F2EB11A0FB01235A0902FBCE
:102690000500322303EB0010A0FB0101F02000EA4B
:1026A000511000EB0210C1F3431108442168886007
:1026B000B0BD0000FEE700008AB0FEF791FDFFF715
:1026C0004BFEFFF719FDFFF7F3FCFFF7CDFCFFF71B
:1026D0001BFEFFF7A3FDFFF7DBFD6C46204628211C
:1026E000FDF762FE0E2040F2B40505900120C2F213
:1026F0000005CDE9070028462146FDF74DFF284695
:10270000FEF77EFA28460221FDF7DCFEFEE7F1EE39
:10271000100A4FF6FF71C0F2C03120EA010040F00C
:102720004070E1EE100A7047000000000000000059
:102730000102030406070809000000000102030467
:10274000000610160006101668270008000000207A
:102750003000000010020008982700083000002018
:1027600048080000300200080100000010000000CE
:102770000024F4000134101010053445000200005C
:102780000000000000000000000000000800000041
:08279000000000000100000040
:04000005080001AD41
:00000001FF
